:020000040800F2
:10000000F84F0020410000087D0000087D00000836
:100010007D0000087D0000087D0000080000000051
:100020000000000000000000000000007F00000849
:100030007F000008000000007F0000087F0000082B
:1000400009480A490A4A28B111F8013B013802F867
:10005000013BF8E707480849002218B101F8012BD5
:100060000138FAE700F00CB800000000B001000809
:10007000000000200000000000000020FEE77047A4
:100080003C483D4A016841F001010160416811406E
:100090003A4A41600168114040F2FF420160016844
:1000A00021F480210160416821F4FE0141604FF498
:1000B0001F018160016841F480310160016801F431
:1000C00000310368541E944203F4003303D2002924
:1000D00022461946F5D083B329490A6842F0100236
:1000E0000A600A6802F0FC020A600A6842F0020232
:1000F0000A604168416041684160416841F4806143
:100100004160416821F47C114160416841F4E8118B
:100110004160016841F08071016001688901FCD58E
:10012000416821F003014160416841F002014160F2
:10013000416801F00C010829FAD112494FF0006220
:100140000A60816941F0100181610F48016821F462
:1001500070010160016841F4001101600B4982687F
:1001600082F4005282600A46002AF8D000BF013AA9
:10017000FAE700BF001002400000FFF8FFFFF6FEA4
:100180000020024008ED00E00410014040420F0052
:10019000B0FEFF7F01000000E4FEFF7F01000000D1
:1001A000DEFEFF7F01000000E8FFFF7F010000008E
:0400000508000041AE
:00000001FF
